{
  "contractName": "SmartWasteManagement",
  "abi": [
    {
      "inputs": [],
      "stateMutability": "nonpayable",
      "type": "constructor"
    },
    {
      "anonymous": false,
      "inputs": [
        {
          "indexed": true,
          "internalType": "address",
          "name": "user",
          "type": "address"
        },
        {
          "indexed": false,
          "internalType": "uint256",
          "name": "couponAmount",
          "type": "uint256"
        }
      ],
      "name": "DigitalCouponIssued",
      "type": "event"
    },
    {
      "anonymous": false,
      "inputs": [
        {
          "indexed": true,
          "internalType": "address",
          "name": "user",
          "type": "address"
        },
        {
          "indexed": false,
          "internalType": "uint256",
          "name": "fineAmount",
          "type": "uint256"
        }
      ],
      "name": "FineImposed",
      "type": "event"
    },
    {
      "anonymous": false,
      "inputs": [
        {
          "indexed": true,
          "internalType": "address",
          "name": "sender",
          "type": "address"
        },
        {
          "indexed": false,
          "internalType": "enum SmartWasteManagement.WasteType",
          "name": "wasteType",
          "type": "uint8"
        },
        {
          "indexed": false,
          "internalType": "uint256",
          "name": "quantity",
          "type": "uint256"
        },
        {
          "indexed": false,
          "internalType": "string",
          "name": "location",
          "type": "string"
        },
        {
          "indexed": false,
          "internalType": "uint256",
          "name": "timestamp",
          "type": "uint256"
        }
      ],
      "name": "WasteTransactionRecorded",
      "type": "event"
    },
    {
      "inputs": [],
      "name": "owner",
      "outputs": [
        {
          "internalType": "address",
          "name": "",
          "type": "address"
        }
      ],
      "stateMutability": "view",
      "type": "function"
    },
    {
      "inputs": [],
      "name": "transactionCount",
      "outputs": [
        {
          "internalType": "uint256",
          "name": "",
          "type": "uint256"
        }
      ],
      "stateMutability": "view",
      "type": "function"
    },
    {
      "inputs": [
        {
          "internalType": "address",
          "name": "",
          "type": "address"
        }
      ],
      "name": "userBalances",
      "outputs": [
        {
          "internalType": "uint256",
          "name": "",
          "type": "uint256"
        }
      ],
      "stateMutability": "view",
      "type": "function"
    },
    {
      "inputs": [
        {
          "internalType": "uint256",
          "name": "",
          "type": "uint256"
        }
      ],
      "name": "wasteTransactions",
      "outputs": [
        {
          "internalType": "address",
          "name": "sender",
          "type": "address"
        },
        {
          "internalType": "enum SmartWasteManagement.WasteType",
          "name": "wasteType",
          "type": "uint8"
        },
        {
          "internalType": "uint256",
          "name": "quantity",
          "type": "uint256"
        },
        {
          "internalType": "string",
          "name": "location",
          "type": "string"
        },
        {
          "internalType": "uint256",
          "name": "timestamp",
          "type": "uint256"
        }
      ],
      "stateMutability": "view",
      "type": "function"
    },
    {
      "inputs": [
        {
          "internalType": "enum SmartWasteManagement.WasteType",
          "name": "_wasteType",
          "type": "uint8"
        },
        {
          "internalType": "uint256",
          "name": "_quantity",
          "type": "uint256"
        },
        {
          "internalType": "string",
          "name": "_location",
          "type": "string"
        }
      ],
      "name": "recordWasteTransaction",
      "outputs": [],
      "stateMutability": "nonpayable",
      "type": "function"
    },
    {
      "inputs": [
        {
          "internalType": "address",
          "name": "_user",
          "type": "address"
        },
        {
          "internalType": "uint256",
          "name": "_fineAmount",
          "type": "uint256"
        }
      ],
      "name": "imposeFine",
      "outputs": [],
      "stateMutability": "nonpayable",
      "type": "function"
    },
    {
      "inputs": [],
      "name": "getUserBalance",
      "outputs": [
        {
          "internalType": "uint256",
          "name": "",
          "type": "uint256"
        }
      ],
      "stateMutability": "view",
      "type": "function"
    }
  ],
  "bytecode": "0x608060405234801561000f575f80fd5b50335f806101000a81548173ffffffffffffffffffffffffffffffffffffffff021916908373ffffffffffffffffffffffffffffffffffffffff1602179055506112c38061005c5f395ff3fe608060405234801561000f575f80fd5b506004361061007b575f3560e01c80634df24d94116100595780634df24d94146100ff5780638da5cb5b1461011b578063b7013dc114610139578063b77bf600146101575761007b565b806326224c641461007f5780632ae913cd146100af5780633716e2c1146100e3575b5f80fd5b61009960048036038101906100949190610800565b610175565b6040516100a69190610843565b60405180910390f35b6100c960048036038101906100c49190610886565b61018a565b6040516100da9594939291906109bd565b60405180910390f35b6100fd60048036038101906100f89190610b64565b61026d565b005b61011960048036038101906101149190610bd0565b6104de565b005b6101236106d2565b6040516101309190610c0e565b60405180910390f35b6101416106f5565b60405161014e9190610843565b60405180910390f35b61015f610739565b60405161016c9190610843565b60405180910390f35b6003602052805f5260405f205f915090505481565b6002602052805f5260405f205f91509050805f015f9054906101000a900473ffffffffffffffffffffffffffffffffffffffff1690805f0160149054906101000a900460ff16908060010154908060020180546101e690610c54565b80601f016020809104026020016040519081016040528092919081815260200182805461021290610c54565b801561025d5780601f106102345761010080835404028352916020019161025d565b820191905f5260205f20905b81548152906001019060200180831161024057829003601f168201915b5050505050908060030154905085565b5f82116102af576040517f08c379a00000000000000000000000000000000000000000000000000000000081526004016102a690610cf4565b60405180910390fd5b60015f8154809291906102c190610d3f565b91905055505f6040518060a001604052803373ffffffffffffffffffffffffffffffffffffffff168152602001856001811115610301576103006108c0565b5b81526020018481526020018381526020014281525090508060025f60015481526020019081526020015f205f820151815f015f6101000a81548173ffffffffffffffffffffffffffffffffffffffff021916908373ffffffffffffffffffffffffffffffffffffffff1602179055506020820151815f0160146101000a81548160ff0219169083600181111561039a576103996108c0565b5b02179055506040820151816001015560608201518160020190816103be9190610f23565b50608082015181600301559050503373ffffffffffffffffffffffffffffffffffffffff167f6dbf71388eeb89a37c0fb13b85926939844d7928eefdfa12b08b897408c0ac27858585426040516104189493929190610ff2565b60405180910390a25f61042b858561073f565b90505f8111156104d7578060035f3373ffffffffffffffffffffffffffffffffffffffff1673ffffffffffffffffffffffffffffffffffffffff1681526020019081526020015f205f828254610481919061103c565b925050819055503373ffffffffffffffffffffffffffffffffffffffff167f752b91b96df351f200322dd051927d6690b57f9333d4e2095750fcc94908283e826040516104ce9190610843565b60405180910390a25b5050505050565b5f8054906101000a900473ffffffffffffffffffffffffffffffffffffffff1673ffffffffffffffffffffffffffffffffffffffff163373ffffffffffffffffffffffffffffffffffffffff161461056b576040517f08c379a0000000000000000000000000000000000000000000000000000000008152600401610562906110df565b60405180910390fd5b5f81116105ad576040517f08c379a00000000000000000000000000000000000000000000000000000000081526004016105a49061116d565b60405180910390fd5b8060035f8473ffffffffffffffffffffffffffffffffffffffff1673ffffffffffffffffffffffffffffffffffffffff1681526020019081526020015f2054101561062d576040517f08c379a0000000000000000000000000000000000000000000000000000000008152600401610624906111fb565b60405180910390fd5b8060035f8473ffffffffffffffffffffffffffffffffffffffff1673ffffffffffffffffffffffffffffffffffffffff1681526020019081526020015f205f8282546106799190611219565b925050819055508173ffffffffffffffffffffffffffffffffffffffff167f5b423045e76a24b4838ee515174a72062ad300089bf7d761399958e510ad80dc826040516106c69190610843565b60405180910390a25050565b5f8054906101000a900473ffffffffffffffffffffffffffffffffffffffff1681565b5f60035f3373ffffffffffffffffffffffffffffffffffffffff1673ffffffffffffffffffffffffffffffffffffffff1681526020019081526020015f2054905090565b60015481565b5f806001811115610753576107526108c0565b5b836001811115610766576107656108c0565b5b0361077f57600282610778919061124c565b905061078f565b60038261078c919061124c565b90505b92915050565b5f604051905090565b5f80fd5b5f80fd5b5f73ffffffffffffffffffffffffffffffffffffffff82169050919050565b5f6107cf826107a6565b9050919050565b6107df816107c5565b81146107e9575f80fd5b50565b5f813590506107fa816107d6565b92915050565b5f602082840312156108155761081461079e565b5b5f610822848285016107ec565b91505092915050565b5f819050919050565b61083d8161082b565b82525050565b5f6020820190506108565f830184610834565b92915050565b6108658161082b565b811461086f575f80fd5b50565b5f813590506108808161085c565b92915050565b5f6020828403121561089b5761089a61079e565b5b5f6108a884828501610872565b91505092915050565b6108ba816107c5565b82525050565b7f4e487b71000000000000000000000000000000000000000000000000000000005f52602160045260245ffd5b600281106108fe576108fd6108c0565b5b50565b5f81905061090e826108ed565b919050565b5f61091d82610901565b9050919050565b61092d81610913565b82525050565b5f81519050919050565b5f82825260208201905092915050565b5f5b8381101561096a57808201518184015260208101905061094f565b5f8484015250505050565b5f601f19601f8301169050919050565b5f61098f82610933565b610999818561093d565b93506109a981856020860161094d565b6109b281610975565b840191505092915050565b5f60a0820190506109d05f8301886108b1565b6109dd6020830187610924565b6109ea6040830186610834565b81810360608301526109fc8185610985565b9050610a0b6080830184610834565b9695505050505050565b60028110610a21575f80fd5b50565b5f81359050610a3281610a15565b92915050565b5f80fd5b5f80fd5b7f4e487b71000000000000000000000000000000000000000000000000000000005f52604160045260245ffd5b610a7682610975565b810181811067ffffffffffffffff82111715610a9557610a94610a40565b5b80604052505050565b5f610aa7610795565b9050610ab38282610a6d565b919050565b5f67ffffffffffffffff821115610ad257610ad1610a40565b5b610adb82610975565b9050602081019050919050565b828183375f83830152505050565b5f610b08610b0384610ab8565b610a9e565b905082815260208101848484011115610b2457610b23610a3c565b5b610b2f848285610ae8565b509392505050565b5f82601f830112610b4b57610b4a610a38565b5b8135610b5b848260208601610af6565b91505092915050565b5f805f60608486031215610b7b57610b7a61079e565b5b5f610b8886828701610a24565b9350506020610b9986828701610872565b925050604084013567ffffffffffffffff811115610bba57610bb96107a2565b5b610bc686828701610b37565b9150509250925092565b5f8060408385031215610be657610be561079e565b5b5f610bf3858286016107ec565b9250506020610c0485828601610872565b9150509250929050565b5f602082019050610c215f8301846108b1565b92915050565b7f4e487b71000000000000000000000000000000000000000000000000000000005f52602260045260245ffd5b5f6002820490506001821680610c6b57607f821691505b602082108103610c7e57610c7d610c27565b5b50919050565b7f5175616e74697479206d7573742062652067726561746572207468616e207a655f8201527f726f000000000000000000000000000000000000000000000000000000000000602082015250565b5f610cde60228361093d565b9150610ce982610c84565b604082019050919050565b5f6020820190508181035f830152610d0b81610cd2565b9050919050565b7f4e487b71000000000000000000000000000000000000000000000000000000005f52601160045260245ffd5b5f610d498261082b565b91507fffffffffffffffffffffffffffffffffffffffffffffffffffffffffffffffff8203610d7b57610d7a610d12565b5b600182019050919050565b5f819050815f5260205f209050919050565b5f6020601f8301049050919050565b5f82821b905092915050565b5f60088302610de27fffffffffffffffffffffffffffffffffffffffffffffffffffffffffffffffff82610da7565b610dec8683610da7565b95508019841693508086168417925050509392505050565b5f819050919050565b5f610e27610e22610e1d8461082b565b610e04565b61082b565b9050919050565b5f819050919050565b610e4083610e0d565b610e54610e4c82610e2e565b848454610db3565b825550505050565b5f90565b610e68610e5c565b610e73818484610e37565b505050565b5b81811015610e9657610e8b5f82610e60565b600181019050610e79565b5050565b601f821115610edb57610eac81610d86565b610eb584610d98565b81016020851015610ec4578190505b610ed8610ed085610d98565b830182610e78565b50505b505050565b5f82821c905092915050565b5f610efb5f1984600802610ee0565b1980831691505092915050565b5f610f138383610eec565b9150826002028217905092915050565b610f2c82610933565b67ffffffffffffffff811115610f4557610f44610a40565b5b610f4f8254610c54565b610f5a828285610e9a565b5f60209050601f831160018114610f8b575f8415610f79578287015190505b610f838582610f08565b865550610fea565b601f198416610f9986610d86565b5f5b82811015610fc057848901518255600182019150602085019450602081019050610f9b565b86831015610fdd5784890151610fd9601f891682610eec565b8355505b6001600288020188555050505b505050505050565b5f6080820190506110055f830187610924565b6110126020830186610834565b81810360408301526110248185610985565b90506110336060830184610834565b95945050505050565b5f6110468261082b565b91506110518361082b565b925082820190508082111561106957611068610d12565b5b92915050565b7f4f6e6c7920746865206f776e65722063616e2063616c6c20746869732066756e5f8201527f6374696f6e000000000000000000000000000000000000000000000000000000602082015250565b5f6110c960258361093d565b91506110d48261106f565b604082019050919050565b5f6020820190508181035f8301526110f6816110bd565b9050919050565b7f46696e6520616d6f756e74206d7573742062652067726561746572207468616e5f8201527f207a65726f000000000000000000000000000000000000000000000000000000602082015250565b5f61115760258361093d565b9150611162826110fd565b604082019050919050565b5f6020820190508181035f8301526111848161114b565b9050919050565b7f5573657220646f6573206e6f7420686176652073756666696369656e742062615f8201527f6c616e636520666f72207468652066696e650000000000000000000000000000602082015250565b5f6111e560328361093d565b91506111f08261118b565b604082019050919050565b5f6020820190508181035f830152611212816111d9565b9050919050565b5f6112238261082b565b915061122e8361082b565b925082820390508181111561124657611245610d12565b5b92915050565b5f6112568261082b565b91506112618361082b565b925082820261126f8161082b565b9150828204841483151761128657611285610d12565b5b509291505056fea2646970667358221220dc0101da1f36be552bf127d242868daed05404a24b47be018607bf64f750a84d64736f6c63430008150033",
  "immutableReferences": {},
  "source": "// SPDX-License-Identifier: MIT\npragma solidity ^0.8.0;\n\ncontract SmartWasteManagement {\n    address public owner; // Contract owner's address\n    uint public transactionCount; // Total number of waste transactions\n\n    enum WasteType { Organic, NonBiodegradable }\n\n    // Structure to represent a waste transaction\n    struct WasteTransaction {\n        address sender;\n        WasteType wasteType;\n        uint quantity;\n        string location;\n        uint timestamp;\n    }\n\n    // Mapping to store waste transactions\n    mapping(uint => WasteTransaction) public wasteTransactions;\n\n    // Mapping to store user balances in digital coupons\n    mapping(address => uint) public userBalances;\n\n    // Event to log waste transactions\n    event WasteTransactionRecorded(address indexed sender, WasteType wasteType, uint quantity, string location, uint timestamp);\n\n    // Event to log fine imposition\n    event FineImposed(address indexed user, uint fineAmount);\n\n    // Event to log digital coupon distribution\n    event DigitalCouponIssued(address indexed user, uint couponAmount);\n\n    // Modifiers\n    modifier onlyOwner() {\n        require(msg.sender == owner, \"Only the owner can call this function\");\n        _;\n    }\n\n    // Constructor\n    constructor() {\n        owner = msg.sender;\n    }\n\n    // Function to record waste transactions\n    function recordWasteTransaction(WasteType _wasteType, uint _quantity, string memory _location) public {\n        require(_quantity > 0, \"Quantity must be greater than zero\");\n\n        // Increment transaction count\n        transactionCount++;\n\n        // Create a new waste transaction\n        WasteTransaction memory newTransaction = WasteTransaction({\n            sender: msg.sender,\n            wasteType: _wasteType,\n            quantity: _quantity,\n            location: _location,\n            timestamp: block.timestamp\n        });\n\n        // Store the transaction in the mapping\n        wasteTransactions[transactionCount] = newTransaction;\n\n        // Emit the event\n        emit WasteTransactionRecorded(msg.sender, _wasteType, _quantity, _location, block.timestamp);\n\n        // Issue digital coupons as an incentive (simplified example)\n        uint couponAmount = calculateCouponAmount(_wasteType, _quantity);\n        if (couponAmount > 0) {\n            userBalances[msg.sender] += couponAmount;\n            emit DigitalCouponIssued(msg.sender, couponAmount);\n        }\n    }\n\n    // Function to impose a fine (onlyOwner can call this function)\n    function imposeFine(address _user, uint _fineAmount) public onlyOwner {\n        require(_fineAmount > 0, \"Fine amount must be greater than zero\");\n\n        // Implement fine imposition logic (e.g., transfer tokens to a specific account)\n        // This is a simplified example and may need to be adapted based on your use case\n        // For demonstration purposes, we deduct the fine amount from the user's digital coupons balance\n        require(userBalances[_user] >= _fineAmount, \"User does not have sufficient balance for the fine\");\n        userBalances[_user] -= _fineAmount;\n\n        // Emit the event\n        emit FineImposed(_user, _fineAmount);\n    }\n\n    // Function to check user's digital coupon balance\n    function getUserBalance() public view returns (uint) {\n        return userBalances[msg.sender];\n    }\n\n    // Internal function to calculate coupon amount based on waste type and quantity\n    function calculateCouponAmount(WasteType _wasteType, uint _quantity) internal pure returns (uint) {\n        // Simplified logic - adjust based on your requirements\n        if (_wasteType == WasteType.Organic) {\n            return _quantity * 2; // 2 coupons per unit for organic waste\n        } else {\n            return _quantity * 3; // 3 coupons per unit for non-biodegradable waste\n        }\n    }\n}\n",
  "sourcePath": "/workspaces/SmartWasteManagement/contracts/SmartWasteManagement.sol",
  "compiler": {
    "name": "solc",
    "version": "0.8.21+commit.d9974bed.Emscripten.clang"
  },
  "schemaVersion": "3.4.16",
  "updatedAt": "2025-01-14T09:37:49.661Z",
  "devdoc": {
    "kind": "dev",
    "methods": {},
    "version": 1
  },
  "userdoc": {
    "kind": "user",
    "methods": {},
    "version": 1
  }
}